{
  "contractName": "HasWhiteList",
  "abi": [
    {
      "constant": true,
      "inputs": [],
      "name": "owner",
      "outputs": [
        {
          "name": "",
          "type": "address"
        }
      ],
      "payable": false,
      "stateMutability": "view",
      "type": "function"
    },
    {
      "constant": false,
      "inputs": [
        {
          "name": "newOwner",
          "type": "address"
        }
      ],
      "name": "transferOwnership",
      "outputs": [],
      "payable": false,
      "stateMutability": "nonpayable",
      "type": "function"
    },
    {
      "anonymous": false,
      "inputs": [
        {
          "indexed": false,
          "name": "sender",
          "type": "address"
        },
        {
          "indexed": false,
          "name": "added",
          "type": "address"
        }
      ],
      "name": "LogAddressAdded",
      "type": "event"
    },
    {
      "anonymous": false,
      "inputs": [
        {
          "indexed": false,
          "name": "sender",
          "type": "address"
        },
        {
          "indexed": false,
          "name": "removed",
          "type": "address"
        }
      ],
      "name": "LogAddressDeleted",
      "type": "event"
    },
    {
      "anonymous": false,
      "inputs": [
        {
          "indexed": false,
          "name": "sender",
          "type": "address"
        },
        {
          "indexed": false,
          "name": "oldFee",
          "type": "uint256"
        },
        {
          "indexed": false,
          "name": "newFee",
          "type": "uint256"
        }
      ],
      "name": "AddressMinimunFeeChanged",
      "type": "event"
    },
    {
      "anonymous": false,
      "inputs": [
        {
          "indexed": false,
          "name": "sender",
          "type": "address"
        },
        {
          "indexed": false,
          "name": "oldPercentage",
          "type": "uint256"
        },
        {
          "indexed": false,
          "name": "newPercentage",
          "type": "uint256"
        }
      ],
      "name": "AddressPercentageChanged",
      "type": "event"
    },
    {
      "anonymous": false,
      "inputs": [
        {
          "indexed": true,
          "name": "previousOwner",
          "type": "address"
        },
        {
          "indexed": true,
          "name": "newOwner",
          "type": "address"
        }
      ],
      "name": "OwnershipTransferred",
      "type": "event"
    },
    {
      "constant": true,
      "inputs": [
        {
          "name": "acc",
          "type": "address"
        }
      ],
      "name": "isInTheWhiteList",
      "outputs": [
        {
          "name": "",
          "type": "bool"
        }
      ],
      "payable": false,
      "stateMutability": "view",
      "type": "function"
    },
    {
      "constant": true,
      "inputs": [
        {
          "name": "acc",
          "type": "address"
        }
      ],
      "name": "getMinimunFee",
      "outputs": [
        {
          "name": "",
          "type": "uint256"
        }
      ],
      "payable": false,
      "stateMutability": "view",
      "type": "function"
    },
    {
      "constant": true,
      "inputs": [
        {
          "name": "acc",
          "type": "address"
        }
      ],
      "name": "getPercentage",
      "outputs": [
        {
          "name": "",
          "type": "uint256"
        }
      ],
      "payable": false,
      "stateMutability": "view",
      "type": "function"
    },
    {
      "constant": false,
      "inputs": [
        {
          "name": "acc",
          "type": "address"
        },
        {
          "name": "_percentage",
          "type": "uint8"
        },
        {
          "name": "_minimunFee",
          "type": "uint256"
        }
      ],
      "name": "addAccountInWhitelist",
      "outputs": [
        {
          "name": "",
          "type": "bool"
        }
      ],
      "payable": false,
      "stateMutability": "nonpayable",
      "type": "function"
    },
    {
      "constant": false,
      "inputs": [
        {
          "name": "acc",
          "type": "address"
        }
      ],
      "name": "deleteAccountFromWhitelist",
      "outputs": [
        {
          "name": "",
          "type": "bool"
        }
      ],
      "payable": false,
      "stateMutability": "nonpayable",
      "type": "function"
    },
    {
      "constant": false,
      "inputs": [
        {
          "name": "acc",
          "type": "address"
        },
        {
          "name": "amount",
          "type": "uint256"
        }
      ],
      "name": "changeAccountMinimunFee",
      "outputs": [
        {
          "name": "",
          "type": "bool"
        }
      ],
      "payable": false,
      "stateMutability": "nonpayable",
      "type": "function"
    },
    {
      "constant": false,
      "inputs": [
        {
          "name": "acc",
          "type": "address"
        },
        {
          "name": "amount",
          "type": "uint8"
        }
      ],
      "name": "changeAccountPercentage",
      "outputs": [
        {
          "name": "",
          "type": "bool"
        }
      ],
      "payable": false,
      "stateMutability": "nonpayable",
      "type": "function"
    }
  ],
  "bytecode": "0x6060604052336000806101000a81548173ffffffffffffffffffffffffffffffffffffffff021916908373ffffffffffffffffffffffffffffffffffffffff160217905550610f31806100536000396000f300606060405260043610610099576000357c0100000000000000000000000000000000000000000000000000000000900463ffffffff1680632dd90d1f1461009e5780633ebbc9c4146100eb5780636255cd211461013857806362745f49146101895780638da5cb5b146101e35780639090304114610238578063e1b4e40f14610295578063f2fde38b146102fb578063f6e9b67314610334575b600080fd5b34156100a957600080fd5b6100d5600480803573ffffffffffffffffffffffffffffffffffffffff16906020019091905050610385565b6040518082815260200191505060405180910390f35b34156100f657600080fd5b610122600480803573ffffffffffffffffffffffffffffffffffffffff169060200190919050506103ce565b6040518082815260200191505060405180910390f35b341561014357600080fd5b61016f600480803573ffffffffffffffffffffffffffffffffffffffff16906020019091905050610427565b604051808215151515815260200191505060405180910390f35b341561019457600080fd5b6101c9600480803573ffffffffffffffffffffffffffffffffffffffff16906020019091908035906020019091905050610672565b604051808215151515815260200191505060405180910390f35b34156101ee57600080fd5b6101f6610875565b604051808273ffffffffffffffffffffffffffffffffffffffff1673ffffffffffffffffffffffffffffffffffffffff16815260200191505060405180910390f35b341561024357600080fd5b61027b600480803573ffffffffffffffffffffffffffffffffffffffff1690602001909190803560ff1690602001909190505061089a565b604051808215151515815260200191505060405180910390f35b34156102a057600080fd5b6102e1600480803573ffffffffffffffffffffffffffffffffffffffff1690602001909190803560ff16906020019091908035906020019091905050610ae9565b604051808215151515815260200191505060405180910390f35b341561030657600080fd5b610332600480803573ffffffffffffffffffffffffffffffffffffffff16906020019091905050610d5a565b005b341561033f57600080fd5b61036b600480803573ffffffffffffffffffffffffffffffffffffffff16906020019091905050610eaf565b604051808215151515815260200191505060405180910390f35b6000600360008373ffffffffffffffffffffffffffffffffffffffff1673ffffffffffffffffffffffffffffffffffffffff168152602001908152602001600020549050919050565b6000600260008373ffffffffffffffffffffffffffffffffffffffff1673ffffffffffffffffffffffffffffffffffffffff16815260200190815260200160002060009054906101000a900460ff1660ff169050919050565b60008060009054906101000a900473ffffffffffffffffffffffffffffffffffffffff1673ffffffffffffffffffffffffffffffffffffffff163373ffffffffffffffffffffffffffffffffffffffff1614151561048457600080fd5b600160008373ffffffffffffffffffffffffffffffffffffffff1673ffffffffffffffffffffffffffffffffffffffff16815260200190815260200160002060009054906101000a900460ff1615156104dc57600080fd5b6000600160008473ffffffffffffffffffffffffffffffffffffffff1673ffffffffffffffffffffffffffffffffffffffff16815260200190815260200160002060006101000a81548160ff0219169083151502179055506000600260008473ffffffffffffffffffffffffffffffffffffffff1673ffffffffffffffffffffffffffffffffffffffff16815260200190815260200160002060006101000a81548160ff021916908360ff1602179055506000600360008473ffffffffffffffffffffffffffffffffffffffff1673ffffffffffffffffffffffffffffffffffffffff168152602001908152602001600020819055507f669d208e37d3fe3188e9d8e0c92e140e53fd0a58973ddc33a2e34e4f219fa77f3383604051808373ffffffffffffffffffffffffffffffffffffffff1673ffffffffffffffffffffffffffffffffffffffff1681526020018273ffffffffffffffffffffffffffffffffffffffff1673ffffffffffffffffffffffffffffffffffffffff1681526020019250505060405180910390a160019050919050565b60008060009054906101000a900473ffffffffffffffffffffffffffffffffffffffff1673ffffffffffffffffffffffffffffffffffffffff163373ffffffffffffffffffffffffffffffffffffffff161415156106cf57600080fd5b600160008473ffffffffffffffffffffffffffffffffffffffff1673ffffffffffffffffffffffffffffffffffffffff16815260200190815260200160002060009054906101000a900460ff16151561072757600080fd5b81600360008573ffffffffffffffffffffffffffffffffffffffff1673ffffffffffffffffffffffffffffffffffffffff168152602001908152602001600020541415151561077557600080fd5b7f5fb739d5409a7794f7ae48f56a58345dede977ed24e015a7675a67e70625de1833600360008673ffffffffffffffffffffffffffffffffffffffff1673ffffffffffffffffffffffffffffffffffffffff1681526020019081526020016000205484604051808473ffffffffffffffffffffffffffffffffffffffff1673ffffffffffffffffffffffffffffffffffffffff168152602001838152602001828152602001935050505060405180910390a181600360008573ffffffffffffffffffffffffffffffffffffffff1673ffffffffffffffffffffffffffffffffffffffff168152602001908152602001600020819055506001905092915050565b6000809054906101000a900473ffffffffffffffffffffffffffffffffffffffff1681565b60008060009054906101000a900473ffffffffffffffffffffffffffffffffffffffff1673ffffffffffffffffffffffffffffffffffffffff163373ffffffffffffffffffffffffffffffffffffffff161415156108f757600080fd5b600160008473ffffffffffffffffffffffffffffffffffffffff1673ffffffffffffffffffffffffffffffffffffffff16815260200190815260200160002060009054906101000a900460ff16151561094f57600080fd5b60648260ff1610151561096157600080fd5b8160ff16600260008573ffffffffffffffffffffffffffffffffffffffff1673ffffffffffffffffffffffffffffffffffffffff16815260200190815260200160002060009054906101000a900460ff1660ff16141515156109c257600080fd5b7f5b707ae158ff5264617706f5fab47b656f906759d826a1c3b48035905d5933e033600260008673ffffffffffffffffffffffffffffffffffffffff1673ffffffffffffffffffffffffffffffffffffffff16815260200190815260200160002060009054906101000a900460ff1684604051808473ffffffffffffffffffffffffffffffffffffffff1673ffffffffffffffffffffffffffffffffffffffff1681526020018360ff1681526020018260ff168152602001935050505060405180910390a181600260008573ffffffffffffffffffffffffffffffffffffffff1673ffffffffffffffffffffffffffffffffffffffff16815260200190815260200160002060006101000a81548160ff021916908360ff1602179055506001905092915050565b60008060009054906101000a900473ffffffffffffffffffffffffffffffffffffffff1673ffffffffffffffffffffffffffffffffffffffff163373ffffffffffffffffffffffffffffffffffffffff16141515610b4657600080fd5b600160008573ffffffffffffffffffffffffffffffffffffffff1673ffffffffffffffffffffffffffffffffffffffff16815260200190815260200160002060009054906101000a900460ff16151515610b9f57600080fd5b60008473ffffffffffffffffffffffffffffffffffffffff1614151515610bc557600080fd5b60018060008673ffffffffffffffffffffffffffffffffffffffff1673ffffffffffffffffffffffffffffffffffffffff16815260200190815260200160002060006101000a81548160ff02191690831515021790555082600260008673ffffffffffffffffffffffffffffffffffffffff1673ffffffffffffffffffffffffffffffffffffffff16815260200190815260200160002060006101000a81548160ff021916908360ff16021790555081600360008673ffffffffffffffffffffffffffffffffffffffff1673ffffffffffffffffffffffffffffffffffffffff168152602001908152602001600020819055507f607dd94b05924230a92292ae4e1f781e865eacb8d667ca161f218f6930997d853385604051808373ffffffffffffffffffffffffffffffffffffffff1673ffffffffffffffffffffffffffffffffffffffff1681526020018273ffffffffffffffffffffffffffffffffffffffff1673ffffffffffffffffffffffffffffffffffffffff1681526020019250505060405180910390a1600190509392505050565b6000809054906101000a900473ffffffffffffffffffffffffffffffffffffffff1673ffffffffffffffffffffffffffffffffffffffff163373ffffffffffffffffffffffffffffffffffffffff16141515610db557600080fd5b600073ffffffffffffffffffffffffffffffffffffffff168173ffffffffffffffffffffffffffffffffffffffff1614151515610df157600080fd5b8073ffffffffffffffffffffffffffffffffffffffff166000809054906101000a900473ffffffffffffffffffffffffffffffffffffffff1673ffffffffffffffffffffffffffffffffffffffff167f8be0079c531659141344cd1fd0a4f28419497f9722a3daafe3b4186f6b6457e060405160405180910390a3806000806101000a81548173ffffffffffffffffffffffffffffffffffffffff021916908373ffffffffffffffffffffffffffffffffffffffff16021790555050565b6000600160008373ffffffffffffffffffffffffffffffffffffffff1673ffffffffffffffffffffffffffffffffffffffff16815260200190815260200160002060009054906101000a900460ff1690509190505600a165627a7a723058205804661369cbf8b0761f95cb86ccd9045be75ba74ff64e817b2c45317602ebea0029",
  "source": "pragma solidity ^0.4.18;\n\nimport \"zeppelin-solidity/contracts/ownership/Ownable.sol\";\n/* \n* @title HasWhiteList\n* @dev allow the contracts that inherit from this to have a whitelist\n*/\ncontract HasWhiteList is Ownable{\n    //events\n    event LogAddressAdded(address sender,address added);\n    event LogAddressDeleted(address sender,address removed);    \n    event AddressMinimunFeeChanged(address sender,uint256 oldFee,uint256 newFee);\n    event AddressPercentageChanged(address sender,uint256 oldPercentage,uint256 newPercentage);\n    //mappings\n    mapping (address => bool) isInWhitelist;\n    mapping (address => uint8) whitelistPercentage;\n    mapping (address => uint256) whitelistMinimunFee;\n    /**\n    * @dev check if a given account is in the whitelist\n    * @param acc address to chek.\n    */\n    function isInTheWhiteList(address acc) public constant returns(bool){\n        return isInWhitelist[acc];\n    }\n    /**\n    * @dev return the minimunFee assigned to a given account.\n    * @param acc address to check.\n    */\n    function getMinimunFee(address acc) public constant returns(uint256){\n        return whitelistMinimunFee[acc];\n    }\n    /**\n    * @dev return the percentage assigned to a given account.\n    * @param acc address to chek.\n    */\n    function getPercentage(address acc) public constant returns(uint256){\n        return whitelistPercentage[acc];\n    }\n    /**\n    * @dev add a new account in the whitelist.\n    * @param acc address to add.\n    * @param _percentage the percentage that has to be assigned to that account\n    * @param _minimunFee the minimunFee that has to be assigned to that account\n    */\n    function addAccountInWhitelist(address acc,uint8 _percentage,uint256 _minimunFee) onlyOwner public returns(bool){\n        require(!isInWhitelist[acc]);\n        require(acc != 0);\n        isInWhitelist[acc] = true;\n        whitelistPercentage[acc] = _percentage;\n        whitelistMinimunFee[acc] = _minimunFee;\n        LogAddressAdded(msg.sender,acc);\n        return true;\n    }\n    /**\n    * @dev delete an account from the whitelist.\n    * @param acc address to delete.\n    */\n    function deleteAccountFromWhitelist(address acc) onlyOwner public returns(bool){\n        require(isInWhitelist[acc]);\n        isInWhitelist[acc] = false;\n        whitelistPercentage[acc] = 0;\n        whitelistMinimunFee[acc] = 0;\n        LogAddressDeleted(msg.sender,acc);\n        return true;\n    }\n    /**\n    * @dev assign a new minimun fee to a whitelisted address;\n    * @param acc address that have tobe modified.\n    * @param amount the new minimun fee.\n    */\n    function changeAccountMinimunFee(address acc,uint256 amount) onlyOwner public returns(bool){\n        require(isInWhitelist[acc]);\n        require(whitelistMinimunFee[acc] != amount);\n        AddressMinimunFeeChanged(msg.sender,whitelistMinimunFee[acc],amount);\n        whitelistMinimunFee[acc] = amount;\n        return true;\n    }\n    /**\n    * @dev assign a new percentage to a whitelisted address;\n    * @param acc address that have to be modified.\n    * @param amount the new percentage.\n    */\n    function changeAccountPercentage(address acc,uint8 amount) onlyOwner public returns(bool){\n        require(isInWhitelist[acc]);\n        require(amount < 100);\n        require(whitelistPercentage[acc] != amount);\n        AddressPercentageChanged(msg.sender,whitelistPercentage[acc],amount);\n        whitelistPercentage[acc] = amount;\n        return true;\n    }\n}",
  "sourcePath": "/home/giulio/DAPPS/ERC888/contracts/HasWhiteList.sol",
  "compiler": {
    "name": "solc",
    "version": "0.4.19+commit.c4cbbb05.Emscripten.clang"
  },
  "schemaVersion": "1.0.1",
  "updatedAt": "2018-03-10T18:45:03.488Z"
}