{
  "contractName": "HasWhiteList",
  "abi": [
    {
      "constant": true,
      "inputs": [],
      "name": "owner",
      "outputs": [
        {
          "name": "",
          "type": "address"
        }
      ],
      "payable": false,
      "stateMutability": "view",
      "type": "function"
    },
    {
      "constant": false,
      "inputs": [
        {
          "name": "newOwner",
          "type": "address"
        }
      ],
      "name": "transferOwnership",
      "outputs": [],
      "payable": false,
      "stateMutability": "nonpayable",
      "type": "function"
    },
    {
      "anonymous": false,
      "inputs": [
        {
          "indexed": false,
          "name": "sender",
          "type": "address"
        },
        {
          "indexed": false,
          "name": "added",
          "type": "address"
        }
      ],
      "name": "LogAddressAdded",
      "type": "event"
    },
    {
      "anonymous": false,
      "inputs": [
        {
          "indexed": false,
          "name": "sender",
          "type": "address"
        },
        {
          "indexed": false,
          "name": "removed",
          "type": "address"
        }
      ],
      "name": "LogAddressDeleted",
      "type": "event"
    },
    {
      "anonymous": false,
      "inputs": [
        {
          "indexed": false,
          "name": "sender",
          "type": "address"
        },
        {
          "indexed": false,
          "name": "oldFee",
          "type": "uint256"
        },
        {
          "indexed": false,
          "name": "newFee",
          "type": "uint256"
        }
      ],
      "name": "AddressMinimunFeeChanged",
      "type": "event"
    },
    {
      "anonymous": false,
      "inputs": [
        {
          "indexed": false,
          "name": "sender",
          "type": "address"
        },
        {
          "indexed": false,
          "name": "oldPercentage",
          "type": "uint256"
        },
        {
          "indexed": false,
          "name": "newPercentage",
          "type": "uint256"
        }
      ],
      "name": "AddressPercentageChanged",
      "type": "event"
    },
    {
      "anonymous": false,
      "inputs": [
        {
          "indexed": true,
          "name": "previousOwner",
          "type": "address"
        },
        {
          "indexed": true,
          "name": "newOwner",
          "type": "address"
        }
      ],
      "name": "OwnershipTransferred",
      "type": "event"
    },
    {
      "constant": true,
      "inputs": [
        {
          "name": "acc",
          "type": "address"
        }
      ],
      "name": "isInTheWhiteList",
      "outputs": [
        {
          "name": "",
          "type": "bool"
        }
      ],
      "payable": false,
      "stateMutability": "view",
      "type": "function"
    },
    {
      "constant": true,
      "inputs": [
        {
          "name": "acc",
          "type": "address"
        }
      ],
      "name": "getMinimunFee",
      "outputs": [
        {
          "name": "",
          "type": "uint256"
        }
      ],
      "payable": false,
      "stateMutability": "view",
      "type": "function"
    },
    {
      "constant": true,
      "inputs": [
        {
          "name": "acc",
          "type": "address"
        }
      ],
      "name": "getPercentage",
      "outputs": [
        {
          "name": "",
          "type": "uint256"
        }
      ],
      "payable": false,
      "stateMutability": "view",
      "type": "function"
    },
    {
      "constant": false,
      "inputs": [
        {
          "name": "acc",
          "type": "address"
        },
        {
          "name": "_percentage",
          "type": "uint8"
        },
        {
          "name": "_minimunFee",
          "type": "uint256"
        }
      ],
      "name": "addAccountFromWhitelist",
      "outputs": [
        {
          "name": "",
          "type": "bool"
        }
      ],
      "payable": false,
      "stateMutability": "nonpayable",
      "type": "function"
    },
    {
      "constant": false,
      "inputs": [
        {
          "name": "acc",
          "type": "address"
        }
      ],
      "name": "deleteAccountFromWhitelist",
      "outputs": [
        {
          "name": "",
          "type": "bool"
        }
      ],
      "payable": false,
      "stateMutability": "nonpayable",
      "type": "function"
    },
    {
      "constant": false,
      "inputs": [
        {
          "name": "acc",
          "type": "address"
        },
        {
          "name": "amount",
          "type": "uint256"
        }
      ],
      "name": "ChangeAccountMinimunFee",
      "outputs": [
        {
          "name": "",
          "type": "bool"
        }
      ],
      "payable": false,
      "stateMutability": "nonpayable",
      "type": "function"
    },
    {
      "constant": false,
      "inputs": [
        {
          "name": "acc",
          "type": "address"
        },
        {
          "name": "amount",
          "type": "uint8"
        }
      ],
      "name": "ChangeAccountPercentage",
      "outputs": [
        {
          "name": "",
          "type": "bool"
        }
      ],
      "payable": false,
      "stateMutability": "nonpayable",
      "type": "function"
    }
  ],
  "bytecode": "0x6060604052336000806101000a81548173ffffffffffffffffffffffffffffffffffffffff021916908373ffffffffffffffffffffffffffffffffffffffff160217905550610f05806100536000396000f300606060405260043610610099576000357c0100000000000000000000000000000000000000000000000000000000900463ffffffff1680632dd90d1f1461009e5780633ebbc9c4146100eb5780636255cd21146101385780638da5cb5b14610189578063baaa5e18146101de578063c7dc41121461023b578063dbe04b3614610295578063f2fde38b146102fb578063f6e9b67314610334575b600080fd5b34156100a957600080fd5b6100d5600480803573ffffffffffffffffffffffffffffffffffffffff16906020019091905050610385565b6040518082815260200191505060405180910390f35b34156100f657600080fd5b610122600480803573ffffffffffffffffffffffffffffffffffffffff169060200190919050506103ce565b6040518082815260200191505060405180910390f35b341561014357600080fd5b61016f600480803573ffffffffffffffffffffffffffffffffffffffff16906020019091905050610427565b604051808215151515815260200191505060405180910390f35b341561019457600080fd5b61019c6105fa565b604051808273ffffffffffffffffffffffffffffffffffffffff1673ffffffffffffffffffffffffffffffffffffffff16815260200191505060405180910390f35b34156101e957600080fd5b610221600480803573ffffffffffffffffffffffffffffffffffffffff1690602001909190803560ff1690602001909190505061061f565b604051808215151515815260200191505060405180910390f35b341561024657600080fd5b61027b600480803573ffffffffffffffffffffffffffffffffffffffff16906020019091908035906020019091905050610894565b604051808215151515815260200191505060405180910390f35b34156102a057600080fd5b6102e1600480803573ffffffffffffffffffffffffffffffffffffffff1690602001909190803560ff16906020019091908035906020019091905050610abd565b604051808215151515815260200191505060405180910390f35b341561030657600080fd5b610332600480803573ffffffffffffffffffffffffffffffffffffffff16906020019091905050610d2e565b005b341561033f57600080fd5b61036b600480803573ffffffffffffffffffffffffffffffffffffffff16906020019091905050610e83565b604051808215151515815260200191505060405180910390f35b6000600360008373ffffffffffffffffffffffffffffffffffffffff1673ffffffffffffffffffffffffffffffffffffffff168152602001908152602001600020549050919050565b6000600260008373ffffffffffffffffffffffffffffffffffffffff1673ffffffffffffffffffffffffffffffffffffffff16815260200190815260200160002060009054906101000a900460ff1660ff169050919050565b60008060009054906101000a900473ffffffffffffffffffffffffffffffffffffffff1673ffffffffffffffffffffffffffffffffffffffff163373ffffffffffffffffffffffffffffffffffffffff1614151561048457600080fd5b600160008373ffffffffffffffffffffffffffffffffffffffff1673ffffffffffffffffffffffffffffffffffffffff16815260200190815260200160002060009054906101000a900460ff1615156104dc57600080fd5b60008273ffffffffffffffffffffffffffffffffffffffff161415151561050257600080fd5b6000600160008473ffffffffffffffffffffffffffffffffffffffff1673ffffffffffffffffffffffffffffffffffffffff16815260200190815260200160002060006101000a81548160ff0219169083151502179055507f669d208e37d3fe3188e9d8e0c92e140e53fd0a58973ddc33a2e34e4f219fa77f3383604051808373ffffffffffffffffffffffffffffffffffffffff1673ffffffffffffffffffffffffffffffffffffffff1681526020018273ffffffffffffffffffffffffffffffffffffffff1673ffffffffffffffffffffffffffffffffffffffff1681526020019250505060405180910390a160019050919050565b6000809054906101000a900473ffffffffffffffffffffffffffffffffffffffff1681565b60008060009054906101000a900473ffffffffffffffffffffffffffffffffffffffff1673ffffffffffffffffffffffffffffffffffffffff163373ffffffffffffffffffffffffffffffffffffffff1614151561067c57600080fd5b60648260ff1610151561068e57600080fd5b600160008473ffffffffffffffffffffffffffffffffffffffff1673ffffffffffffffffffffffffffffffffffffffff16815260200190815260200160002060009054906101000a900460ff1615156106e657600080fd5b60008373ffffffffffffffffffffffffffffffffffffffff161415151561070c57600080fd5b8160ff16600260008573ffffffffffffffffffffffffffffffffffffffff1673ffffffffffffffffffffffffffffffffffffffff16815260200190815260200160002060009054906101000a900460ff1660ff161415151561076d57600080fd5b7f5b707ae158ff5264617706f5fab47b656f906759d826a1c3b48035905d5933e033600260008673ffffffffffffffffffffffffffffffffffffffff1673ffffffffffffffffffffffffffffffffffffffff16815260200190815260200160002060009054906101000a900460ff1684604051808473ffffffffffffffffffffffffffffffffffffffff1673ffffffffffffffffffffffffffffffffffffffff1681526020018360ff1681526020018260ff168152602001935050505060405180910390a181600260008573ffffffffffffffffffffffffffffffffffffffff1673ffffffffffffffffffffffffffffffffffffffff16815260200190815260200160002060006101000a81548160ff021916908360ff1602179055506001905092915050565b60008060009054906101000a900473ffffffffffffffffffffffffffffffffffffffff1673ffffffffffffffffffffffffffffffffffffffff163373ffffffffffffffffffffffffffffffffffffffff161415156108f157600080fd5b600160008473ffffffffffffffffffffffffffffffffffffffff1673ffffffffffffffffffffffffffffffffffffffff16815260200190815260200160002060009054906101000a900460ff16151561094957600080fd5b60008373ffffffffffffffffffffffffffffffffffffffff161415151561096f57600080fd5b81600360008573ffffffffffffffffffffffffffffffffffffffff1673ffffffffffffffffffffffffffffffffffffffff16815260200190815260200160002054141515156109bd57600080fd5b7f5fb739d5409a7794f7ae48f56a58345dede977ed24e015a7675a67e70625de1833600360008673ffffffffffffffffffffffffffffffffffffffff1673ffffffffffffffffffffffffffffffffffffffff1681526020019081526020016000205484604051808473ffffffffffffffffffffffffffffffffffffffff1673ffffffffffffffffffffffffffffffffffffffff168152602001838152602001828152602001935050505060405180910390a181600360008573ffffffffffffffffffffffffffffffffffffffff1673ffffffffffffffffffffffffffffffffffffffff168152602001908152602001600020819055506001905092915050565b60008060009054906101000a900473ffffffffffffffffffffffffffffffffffffffff1673ffffffffffffffffffffffffffffffffffffffff163373ffffffffffffffffffffffffffffffffffffffff16141515610b1a57600080fd5b600160008573ffffffffffffffffffffffffffffffffffffffff1673ffffffffffffffffffffffffffffffffffffffff16815260200190815260200160002060009054906101000a900460ff16151515610b7357600080fd5b60008473ffffffffffffffffffffffffffffffffffffffff1614151515610b9957600080fd5b60018060008673ffffffffffffffffffffffffffffffffffffffff1673ffffffffffffffffffffffffffffffffffffffff16815260200190815260200160002060006101000a81548160ff02191690831515021790555082600260008673ffffffffffffffffffffffffffffffffffffffff1673ffffffffffffffffffffffffffffffffffffffff16815260200190815260200160002060006101000a81548160ff021916908360ff16021790555081600360008673ffffffffffffffffffffffffffffffffffffffff1673ffffffffffffffffffffffffffffffffffffffff168152602001908152602001600020819055507f607dd94b05924230a92292ae4e1f781e865eacb8d667ca161f218f6930997d853385604051808373ffffffffffffffffffffffffffffffffffffffff1673ffffffffffffffffffffffffffffffffffffffff1681526020018273ffffffffffffffffffffffffffffffffffffffff1673ffffffffffffffffffffffffffffffffffffffff1681526020019250505060405180910390a1600190509392505050565b6000809054906101000a900473ffffffffffffffffffffffffffffffffffffffff1673ffffffffffffffffffffffffffffffffffffffff163373ffffffffffffffffffffffffffffffffffffffff16141515610d8957600080fd5b600073ffffffffffffffffffffffffffffffffffffffff168173ffffffffffffffffffffffffffffffffffffffff1614151515610dc557600080fd5b8073ffffffffffffffffffffffffffffffffffffffff166000809054906101000a900473ffffffffffffffffffffffffffffffffffffffff1673ffffffffffffffffffffffffffffffffffffffff167f8be0079c531659141344cd1fd0a4f28419497f9722a3daafe3b4186f6b6457e060405160405180910390a3806000806101000a81548173ffffffffffffffffffffffffffffffffffffffff021916908373ffffffffffffffffffffffffffffffffffffffff16021790555050565b6000600160008373ffffffffffffffffffffffffffffffffffffffff1673ffffffffffffffffffffffffffffffffffffffff16815260200190815260200160002060009054906101000a900460ff1690509190505600a165627a7a72305820100d2f2fa7b0ba8b8b41665d4b6c1ea0327ff055148b0d6b1dc0d00c49de14630029",
  "source": "pragma solidity ^0.4.18;\n\nimport \"zeppelin-solidity/contracts/ownership/Ownable.sol\";\n\n\n/* \n* @title Has White List\n* @dev allow the contracts that inherit from this to have a whitelist\n*/\n\ncontract HasWhiteList is Ownable{\n    //events\n    event LogAddressAdded(address sender,address added);\n    event LogAddressDeleted(address sender,address removed);    \n    event AddressMinimunFeeChanged(address sender,uint256 oldFee,uint256 newFee);\n    event AddressPercentageChanged(address sender,uint256 oldPercentage,uint256 newPercentage);\n    //mappings\n    mapping (address => bool) isInWhitelist;\n    mapping (address => uint8) whitelistPercentage;\n    mapping (address => uint256) whitelistMinimunFee;\n\n    function isInTheWhiteList(address acc) public constant returns(bool){\n        return isInWhitelist[acc];\n    }\n\n    function getMinimunFee(address acc) public constant returns(uint256){\n        return whitelistMinimunFee[acc];\n    }\n\n    function getPercentage(address acc) public constant returns(uint256){\n        return whitelistPercentage[acc];\n    }\n\n    function addAccountFromWhitelist(address acc,uint8 _percentage,uint256 _minimunFee) onlyOwner public returns(bool){\n        require(!isInWhitelist[acc]);\n        require(acc != 0);\n        isInWhitelist[acc] = true;\n        whitelistPercentage[acc] = _percentage;\n        whitelistMinimunFee[acc] = _minimunFee;\n        LogAddressAdded(msg.sender,acc);\n        return true;\n    }\n\n    function deleteAccountFromWhitelist(address acc) onlyOwner public returns(bool){\n        require(isInWhitelist[acc]);\n        require(acc != 0);\n        isInWhitelist[acc] = false;\n        LogAddressDeleted(msg.sender,acc);\n        return true;\n    }\n\n    function ChangeAccountMinimunFee(address acc,uint256 amount) onlyOwner public returns(bool){\n        require(isInWhitelist[acc]);\n        require(acc != 0);\n        require(whitelistMinimunFee[acc] != amount);\n        AddressMinimunFeeChanged(msg.sender,whitelistMinimunFee[acc],amount);\n        whitelistMinimunFee[acc] = amount;\n        return true;\n    }\n\n    function ChangeAccountPercentage(address acc,uint8 amount) onlyOwner public returns(bool){\n        require(amount < 100);\n        require(isInWhitelist[acc]);\n        require(acc != 0);\n        require(whitelistPercentage[acc] != amount);\n        AddressPercentageChanged(msg.sender,whitelistPercentage[acc],amount);\n        whitelistPercentage[acc] = amount;\n        return true;\n    }\n}",
  "sourcePath": "/home/giulio/DAPPS/ERC888/contracts/HasWhiteList.sol",
  "compiler": {
    "name": "solc",
    "version": "0.4.19+commit.c4cbbb05.Emscripten.clang"
  },
  "schemaVersion": "1.0.1",
  "updatedAt": "2018-03-05T16:53:00.097Z"
}