{
  "contractName": "Taxable",
  "abi": [
    {
      "constant": true,
      "inputs": [],
      "name": "cansetPercentage",
      "outputs": [
        {
          "name": "",
          "type": "bool"
        }
      ],
      "payable": false,
      "stateMutability": "view",
      "type": "function"
    },
    {
      "constant": true,
      "inputs": [],
      "name": "minimunFee",
      "outputs": [
        {
          "name": "",
          "type": "uint256"
        }
      ],
      "payable": false,
      "stateMutability": "view",
      "type": "function"
    },
    {
      "constant": false,
      "inputs": [],
      "name": "renounceOwnership",
      "outputs": [],
      "payable": false,
      "stateMutability": "nonpayable",
      "type": "function"
    },
    {
      "constant": true,
      "inputs": [],
      "name": "canChangeMinimunFee",
      "outputs": [
        {
          "name": "",
          "type": "bool"
        }
      ],
      "payable": false,
      "stateMutability": "view",
      "type": "function"
    },
    {
      "constant": true,
      "inputs": [],
      "name": "owner",
      "outputs": [
        {
          "name": "",
          "type": "address"
        }
      ],
      "payable": false,
      "stateMutability": "view",
      "type": "function"
    },
    {
      "constant": true,
      "inputs": [],
      "name": "percentage",
      "outputs": [
        {
          "name": "",
          "type": "uint8"
        }
      ],
      "payable": false,
      "stateMutability": "view",
      "type": "function"
    },
    {
      "constant": false,
      "inputs": [
        {
          "name": "_newOwner",
          "type": "address"
        }
      ],
      "name": "transferOwnership",
      "outputs": [],
      "payable": false,
      "stateMutability": "nonpayable",
      "type": "function"
    },
    {
      "inputs": [],
      "payable": false,
      "stateMutability": "nonpayable",
      "type": "constructor"
    },
    {
      "anonymous": false,
      "inputs": [
        {
          "indexed": false,
          "name": "sender",
          "type": "address"
        },
        {
          "indexed": false,
          "name": "oldPercentage",
          "type": "uint8"
        },
        {
          "indexed": false,
          "name": "newPercentage",
          "type": "uint8"
        }
      ],
      "name": "LogPercentageChanges",
      "type": "event"
    },
    {
      "anonymous": false,
      "inputs": [
        {
          "indexed": false,
          "name": "sender",
          "type": "address"
        },
        {
          "indexed": false,
          "name": "oldMinimunFee",
          "type": "uint256"
        },
        {
          "indexed": false,
          "name": "newMinimunFee",
          "type": "uint256"
        }
      ],
      "name": "LogMinimunFeeChanges",
      "type": "event"
    },
    {
      "anonymous": false,
      "inputs": [],
      "name": "StoppingChangingPercentage",
      "type": "event"
    },
    {
      "anonymous": false,
      "inputs": [],
      "name": "StoppingChangingMinimunFee",
      "type": "event"
    },
    {
      "anonymous": false,
      "inputs": [
        {
          "indexed": true,
          "name": "previousOwner",
          "type": "address"
        }
      ],
      "name": "OwnershipRenounced",
      "type": "event"
    },
    {
      "anonymous": false,
      "inputs": [
        {
          "indexed": true,
          "name": "previousOwner",
          "type": "address"
        },
        {
          "indexed": true,
          "name": "newOwner",
          "type": "address"
        }
      ],
      "name": "OwnershipTransferred",
      "type": "event"
    },
    {
      "constant": false,
      "inputs": [
        {
          "name": "_percentage",
          "type": "uint8"
        }
      ],
      "name": "setPercentage",
      "outputs": [
        {
          "name": "",
          "type": "bool"
        }
      ],
      "payable": false,
      "stateMutability": "nonpayable",
      "type": "function"
    },
    {
      "constant": false,
      "inputs": [
        {
          "name": "_minimunFee",
          "type": "uint256"
        }
      ],
      "name": "setMinimunFee",
      "outputs": [
        {
          "name": "",
          "type": "bool"
        }
      ],
      "payable": false,
      "stateMutability": "nonpayable",
      "type": "function"
    },
    {
      "constant": false,
      "inputs": [],
      "name": "stopSetPercentage",
      "outputs": [
        {
          "name": "",
          "type": "bool"
        }
      ],
      "payable": false,
      "stateMutability": "nonpayable",
      "type": "function"
    },
    {
      "constant": false,
      "inputs": [],
      "name": "stopSetMinimunFee",
      "outputs": [
        {
          "name": "",
          "type": "bool"
        }
      ],
      "payable": false,
      "stateMutability": "nonpayable",
      "type": "function"
    }
  ],
  "bytecode": "0x608060405234801561001057600080fd5b50336000806101000a81548173ffffffffffffffffffffffffffffffffffffffff021916908373ffffffffffffffffffffffffffffffffffffffff1602179055506001600260006101000a81548160ff0219169083151502179055506001600260016101000a81548160ff0219169083151502179055506109c2806100966000396000f3006080604052600436106100af576000357c0100000000000000000000000000000000000000000000000000000000900463ffffffff16806313e8ae10146100b45780632a56e77b146100fc57806339ac800e1461012b5780633b393f9b1461015a5780634666c89d14610189578063715018a6146101b45780637b973779146101cb5780638da5cb5b146101fa578063c6bf3a0614610251578063c78ad77f14610296578063f2fde38b146102c7575b600080fd5b3480156100c057600080fd5b506100e2600480360381019080803560ff16906020019092919050505061030a565b604051808215151515815260200191505060405180910390f35b34801561010857600080fd5b50610111610446565b604051808215151515815260200191505060405180910390f35b34801561013757600080fd5b50610140610459565b604051808215151515815260200191505060405180910390f35b34801561016657600080fd5b5061016f61051f565b604051808215151515815260200191505060405180910390f35b34801561019557600080fd5b5061019e6105e5565b6040518082815260200191505060405180910390f35b3480156101c057600080fd5b506101c96105eb565b005b3480156101d757600080fd5b506101e06106ed565b604051808215151515815260200191505060405180910390f35b34801561020657600080fd5b5061020f610700565b604051808273ffffffffffffffffffffffffffffffffffffffff1673ffffffffffffffffffffffffffffffffffffffff16815260200191505060405180910390f35b34801561025d57600080fd5b5061027c60048036038101908080359060200190929190505050610725565b604051808215151515815260200191505060405180910390f35b3480156102a257600080fd5b506102ab610822565b604051808260ff1660ff16815260200191505060405180910390f35b3480156102d357600080fd5b50610308600480360381019080803573ffffffffffffffffffffffffffffffffffffffff169060200190929190505050610835565b005b60008060009054906101000a900473ffffffffffffffffffffffffffffffffffffffff1673ffffffffffffffffffffffffffffffffffffffff163373ffffffffffffffffffffffffffffffffffffffff1614151561036757600080fd5b60648260ff1610151561037957600080fd5b600260009054906101000a900460ff16151561039457600080fd5b7f4fd504539f6ced6c0e197151388219ffe84b05538f12b40e53c15b73fcc4f0f733600060149054906101000a900460ff1684604051808473ffffffffffffffffffffffffffffffffffffffff1673ffffffffffffffffffffffffffffffffffffffff1681526020018360ff1660ff1681526020018260ff1660ff168152602001935050505060405180910390a181600060146101000a81548160ff021916908360ff16021790555060019050919050565b600260009054906101000a900460ff1681565b60008060009054906101000a900473ffffffffffffffffffffffffffffffffffffffff1673ffffffffffffffffffffffffffffffffffffffff163373ffffffffffffffffffffffffffffffffffffffff161415156104b657600080fd5b600260009054906101000a900460ff1615156104d157600080fd5b6000600260006101000a81548160ff0219169083151502179055507f34dcac371dbdda2bc61b77a23bdaa33b0aead1ee0d8fa5b32df9c17a8c02731060405160405180910390a16001905090565b60008060009054906101000a900473ffffffffffffffffffffffffffffffffffffffff1673ffffffffffffffffffffffffffffffffffffffff163373ffffffffffffffffffffffffffffffffffffffff1614151561057c57600080fd5b600260019054906101000a900460ff16151561059757600080fd5b6000600260016101000a81548160ff0219169083151502179055507f8c63751f3af7fd626ece67074450cba7464a1a564989e58f8a1902db6532f0e560405160405180910390a16001905090565b60015481565b6000809054906101000a900473ffffffffffffffffffffffffffffffffffffffff1673ffffffffffffffffffffffffffffffffffffffff163373ffffffffffffffffffffffffffffffffffffffff1614151561064657600080fd5b6000809054906101000a900473ffffffffffffffffffffffffffffffffffffffff1673ffffffffffffffffffffffffffffffffffffffff167ff8df31144d9c2f0f6b59d69b8b98abd5459d07f2742c4df920b25aae33c6482060405160405180910390a260008060006101000a81548173ffffffffffffffffffffffffffffffffffffffff021916908373ffffffffffffffffffffffffffffffffffffffff160217905550565b600260019054906101000a900460ff1681565b6000809054906101000a900473ffffffffffffffffffffffffffffffffffffffff1681565b60008060009054906101000a900473ffffffffffffffffffffffffffffffffffffffff1673ffffffffffffffffffffffffffffffffffffffff163373ffffffffffffffffffffffffffffffffffffffff1614151561078257600080fd5b600260019054906101000a900460ff16151561079d57600080fd5b7f429b683239a309be0c768a5b571434c3ec8b1f9709f80557c53f7675591e82ed3360015484604051808473ffffffffffffffffffffffffffffffffffffffff1673ffffffffffffffffffffffffffffffffffffffff168152602001838152602001828152602001935050505060405180910390a18160018190555060019050919050565b600060149054906101000a900460ff1681565b6000809054906101000a900473ffffffffffffffffffffffffffffffffffffffff1673ffffffffffffffffffffffffffffffffffffffff163373ffffffffffffffffffffffffffffffffffffffff1614151561089057600080fd5b6108998161089c565b50565b600073ffffffffffffffffffffffffffffffffffffffff168173ffffffffffffffffffffffffffffffffffffffff16141515156108d857600080fd5b8073ffffffffffffffffffffffffffffffffffffffff166000809054906101000a900473ffffffffffffffffffffffffffffffffffffffff1673ffffffffffffffffffffffffffffffffffffffff167f8be0079c531659141344cd1fd0a4f28419497f9722a3daafe3b4186f6b6457e060405160405180910390a3806000806101000a81548173ffffffffffffffffffffffffffffffffffffffff021916908373ffffffffffffffffffffffffffffffffffffffff160217905550505600a165627a7a7230582071da6b43547d2d55beed7a544c06f0258815684ccf30f8c40387da9b50560a540029",
  "source": "pragma solidity ^0.4.18;\n\nimport \"zeppelin-solidity/contracts/ownership/Ownable.sol\";\n\n/* \n* @title Has White List\n* @dev make tokens taxable(you have to handle those variables as you wish in your token)\n*/\ncontract Taxable is Ownable{\n    //events\n    event LogPercentageChanges(address sender,uint8 oldPercentage,uint8 newPercentage);\n    event LogMinimunFeeChanges(address sender,uint256 oldMinimunFee,uint256 newMinimunFee);\n    event StoppingChangingPercentage();\n    event StoppingChangingMinimunFee();\n    //state variables\n    uint8 public percentage;\n    uint256 public minimunFee;\n    bool public cansetPercentage;\n    bool public canChangeMinimunFee;\n    //constructor\n    function Taxable() public {\n        cansetPercentage = true;\n        canChangeMinimunFee = true;\n    }\n    /**\n    * @dev change the contract percentage fee.\n    * @param _percentage The new percentage.\n    */\n    function setPercentage(uint8 _percentage) onlyOwner public returns(bool){\n        require(_percentage < 100);\n        require(cansetPercentage);\n        LogPercentageChanges(msg.sender,percentage,_percentage);\n        percentage = _percentage;\n        return true;\n    }\n    /**\n    * @dev change the minimun fee.\n    * @param _minimunFee The new minimun fee.\n    */\n    function setMinimunFee(uint256 _minimunFee) onlyOwner public returns(bool){\n        require(canChangeMinimunFee);\n        LogMinimunFeeChanges(msg.sender,minimunFee,_minimunFee);\n        minimunFee = _minimunFee;\n        return true;\n    }\n    /**\n    * @dev make impossible to change percentage again\n    */\n    function stopSetPercentage() public onlyOwner returns(bool){\n        require(cansetPercentage);\n        cansetPercentage = false;\n        StoppingChangingPercentage();\n        return true;\n    }  \n    /**\n    * @dev make impossible to change minimunFee again\n    */\n    function stopSetMinimunFee() public onlyOwner returns(bool){\n        require(canChangeMinimunFee);\n        canChangeMinimunFee = false;\n        StoppingChangingMinimunFee();\n        return true;\n    }   \n}",
  "sourcePath": "/home/giulio/lol/Ethereum-Taxable-Token/contracts/Taxable.sol",
  "compiler": {
    "name": "solc",
    "version": "0.4.24+commit.e67f0147.Emscripten.clang"
  },
  "schemaVersion": "2.0.1",
  "updatedAt": "2019-03-03T20:58:55.937Z"
}