{
  "contractName": "Taxable",
  "abi": [
    {
      "constant": true,
      "inputs": [],
      "name": "minimunFee",
      "outputs": [
        {
          "name": "",
          "type": "uint256"
        }
      ],
      "payable": false,
      "stateMutability": "view",
      "type": "function"
    },
    {
      "constant": true,
      "inputs": [],
      "name": "canChangeMinimunFee",
      "outputs": [
        {
          "name": "",
          "type": "bool"
        }
      ],
      "payable": false,
      "stateMutability": "view",
      "type": "function"
    },
    {
      "constant": true,
      "inputs": [],
      "name": "owner",
      "outputs": [
        {
          "name": "",
          "type": "address"
        }
      ],
      "payable": false,
      "stateMutability": "view",
      "type": "function"
    },
    {
      "constant": true,
      "inputs": [],
      "name": "canChangePercentage",
      "outputs": [
        {
          "name": "",
          "type": "bool"
        }
      ],
      "payable": false,
      "stateMutability": "view",
      "type": "function"
    },
    {
      "constant": true,
      "inputs": [],
      "name": "percentage",
      "outputs": [
        {
          "name": "",
          "type": "uint8"
        }
      ],
      "payable": false,
      "stateMutability": "view",
      "type": "function"
    },
    {
      "constant": false,
      "inputs": [
        {
          "name": "newOwner",
          "type": "address"
        }
      ],
      "name": "transferOwnership",
      "outputs": [],
      "payable": false,
      "stateMutability": "nonpayable",
      "type": "function"
    },
    {
      "inputs": [],
      "payable": false,
      "stateMutability": "nonpayable",
      "type": "constructor"
    },
    {
      "anonymous": false,
      "inputs": [
        {
          "indexed": false,
          "name": "sender",
          "type": "address"
        },
        {
          "indexed": false,
          "name": "oldPercentage",
          "type": "uint8"
        },
        {
          "indexed": false,
          "name": "newPercentage",
          "type": "uint8"
        }
      ],
      "name": "LogPercentageChanges",
      "type": "event"
    },
    {
      "anonymous": false,
      "inputs": [
        {
          "indexed": false,
          "name": "sender",
          "type": "address"
        },
        {
          "indexed": false,
          "name": "oldMinimunFee",
          "type": "uint256"
        },
        {
          "indexed": false,
          "name": "newMinimunFee",
          "type": "uint256"
        }
      ],
      "name": "LogMinimunFeeChanges",
      "type": "event"
    },
    {
      "anonymous": false,
      "inputs": [],
      "name": "StoppingChangingPercentage",
      "type": "event"
    },
    {
      "anonymous": false,
      "inputs": [],
      "name": "StoppingChangingMinimunFee",
      "type": "event"
    },
    {
      "anonymous": false,
      "inputs": [
        {
          "indexed": true,
          "name": "previousOwner",
          "type": "address"
        },
        {
          "indexed": true,
          "name": "newOwner",
          "type": "address"
        }
      ],
      "name": "OwnershipTransferred",
      "type": "event"
    },
    {
      "constant": false,
      "inputs": [
        {
          "name": "_percentage",
          "type": "uint8"
        }
      ],
      "name": "changePercentage",
      "outputs": [
        {
          "name": "",
          "type": "bool"
        }
      ],
      "payable": false,
      "stateMutability": "nonpayable",
      "type": "function"
    },
    {
      "constant": false,
      "inputs": [
        {
          "name": "_minimunFee",
          "type": "uint256"
        }
      ],
      "name": "changeMinimunFee",
      "outputs": [
        {
          "name": "",
          "type": "bool"
        }
      ],
      "payable": false,
      "stateMutability": "nonpayable",
      "type": "function"
    },
    {
      "constant": false,
      "inputs": [],
      "name": "stopChangePercentage",
      "outputs": [
        {
          "name": "",
          "type": "bool"
        }
      ],
      "payable": false,
      "stateMutability": "nonpayable",
      "type": "function"
    },
    {
      "constant": false,
      "inputs": [],
      "name": "stopChangeMinimunFee",
      "outputs": [
        {
          "name": "",
          "type": "bool"
        }
      ],
      "payable": false,
      "stateMutability": "nonpayable",
      "type": "function"
    }
  ],
  "bytecode": "0x6060604052341561000f57600080fd5b336000806101000a81548173ffffffffffffffffffffffffffffffffffffffff021916908373ffffffffffffffffffffffffffffffffffffffff1602179055506001600260006101000a81548160ff0219169083151502179055506001600260016101000a81548160ff021916908315150217905550610866806100946000396000f3006060604052600436106100a4576000357c0100000000000000000000000000000000000000000000000000000000900463ffffffff16806304a4a98f146100a95780634666c89d146100d65780636b0eb9f2146100ff5780637b9737791461012c5780638da5cb5b146101595780639c7c675f146101ae578063af3f11b3146101db578063c78ad77f14610216578063d285660d14610245578063f2fde38b14610283575b600080fd5b34156100b457600080fd5b6100bc6102bc565b604051808215151515815260200191505060405180910390f35b34156100e157600080fd5b6100e9610382565b6040518082815260200191505060405180910390f35b341561010a57600080fd5b610112610388565b604051808215151515815260200191505060405180910390f35b341561013757600080fd5b61013f61044e565b604051808215151515815260200191505060405180910390f35b341561016457600080fd5b61016c610461565b604051808273ffffffffffffffffffffffffffffffffffffffff1673ffffffffffffffffffffffffffffffffffffffff16815260200191505060405180910390f35b34156101b957600080fd5b6101c1610486565b604051808215151515815260200191505060405180910390f35b34156101e657600080fd5b6101fc6004808035906020019091905050610499565b604051808215151515815260200191505060405180910390f35b341561022157600080fd5b610229610596565b604051808260ff1660ff16815260200191505060405180910390f35b341561025057600080fd5b610269600480803560ff169060200190919050506105a9565b604051808215151515815260200191505060405180910390f35b341561028e57600080fd5b6102ba600480803573ffffffffffffffffffffffffffffffffffffffff169060200190919050506106e5565b005b60008060009054906101000a900473ffffffffffffffffffffffffffffffffffffffff1673ffffffffffffffffffffffffffffffffffffffff163373ffffffffffffffffffffffffffffffffffffffff1614151561031957600080fd5b600260009054906101000a900460ff16151561033457600080fd5b6000600260006101000a81548160ff0219169083151502179055507f34dcac371dbdda2bc61b77a23bdaa33b0aead1ee0d8fa5b32df9c17a8c02731060405160405180910390a16001905090565b60015481565b60008060009054906101000a900473ffffffffffffffffffffffffffffffffffffffff1673ffffffffffffffffffffffffffffffffffffffff163373ffffffffffffffffffffffffffffffffffffffff161415156103e557600080fd5b600260019054906101000a900460ff16151561040057600080fd5b6000600260016101000a81548160ff0219169083151502179055507f8c63751f3af7fd626ece67074450cba7464a1a564989e58f8a1902db6532f0e560405160405180910390a16001905090565b600260019054906101000a900460ff1681565b6000809054906101000a900473ffffffffffffffffffffffffffffffffffffffff1681565b600260009054906101000a900460ff1681565b60008060009054906101000a900473ffffffffffffffffffffffffffffffffffffffff1673ffffffffffffffffffffffffffffffffffffffff163373ffffffffffffffffffffffffffffffffffffffff161415156104f657600080fd5b600260019054906101000a900460ff16151561051157600080fd5b7f429b683239a309be0c768a5b571434c3ec8b1f9709f80557c53f7675591e82ed3360015484604051808473ffffffffffffffffffffffffffffffffffffffff1673ffffffffffffffffffffffffffffffffffffffff168152602001838152602001828152602001935050505060405180910390a18160018190555060019050919050565b600060149054906101000a900460ff1681565b60008060009054906101000a900473ffffffffffffffffffffffffffffffffffffffff1673ffffffffffffffffffffffffffffffffffffffff163373ffffffffffffffffffffffffffffffffffffffff1614151561060657600080fd5b60648260ff1610151561061857600080fd5b600260009054906101000a900460ff16151561063357600080fd5b7f4fd504539f6ced6c0e197151388219ffe84b05538f12b40e53c15b73fcc4f0f733600060149054906101000a900460ff1684604051808473ffffffffffffffffffffffffffffffffffffffff1673ffffffffffffffffffffffffffffffffffffffff1681526020018360ff1660ff1681526020018260ff1660ff168152602001935050505060405180910390a181600060146101000a81548160ff021916908360ff16021790555060019050919050565b6000809054906101000a900473ffffffffffffffffffffffffffffffffffffffff1673ffffffffffffffffffffffffffffffffffffffff163373ffffffffffffffffffffffffffffffffffffffff1614151561074057600080fd5b600073ffffffffffffffffffffffffffffffffffffffff168173ffffffffffffffffffffffffffffffffffffffff161415151561077c57600080fd5b8073ffffffffffffffffffffffffffffffffffffffff166000809054906101000a900473ffffffffffffffffffffffffffffffffffffffff1673ffffffffffffffffffffffffffffffffffffffff167f8be0079c531659141344cd1fd0a4f28419497f9722a3daafe3b4186f6b6457e060405160405180910390a3806000806101000a81548173ffffffffffffffffffffffffffffffffffffffff021916908373ffffffffffffffffffffffffffffffffffffffff160217905550505600a165627a7a7230582051b74f995ac8bf1a127a2350eb88cb649057aed2b77d58fe65e2af16b11d2bc80029",
  "source": "pragma solidity ^0.4.18;\n\nimport \"zeppelin-solidity/contracts/ownership/Ownable.sol\";\n\n/* \n* @title Has White List\n* @dev make tokens taxable(you have to handle those variables as you wish in your token)\n*/\ncontract Taxable is Ownable{\n    //events\n    event LogPercentageChanges(address sender,uint8 oldPercentage,uint8 newPercentage);\n    event LogMinimunFeeChanges(address sender,uint256 oldMinimunFee,uint256 newMinimunFee);\n    event StoppingChangingPercentage();\n    event StoppingChangingMinimunFee();\n    //state variables\n    uint8 public percentage;\n    uint256 public minimunFee;\n    bool public canChangePercentage;\n    bool public canChangeMinimunFee;\n    //constructor\n    function Taxable() public {\n        canChangePercentage = true;\n        canChangeMinimunFee = true;\n    }\n    /**\n    * @dev change the contract percentage fee.\n    * @param _percentage The new percentage.\n    */\n    function changePercentage(uint8 _percentage) onlyOwner public returns(bool){\n        require(_percentage < 100);\n        require(canChangePercentage);\n        LogPercentageChanges(msg.sender,percentage,_percentage);\n        percentage = _percentage;\n        return true;\n    }\n    /**\n    * @dev change the minimun fee.\n    * @param _minimunFee The new minimun fee.\n    */\n    function changeMinimunFee(uint256 _minimunFee) onlyOwner public returns(bool){\n        require(canChangeMinimunFee);\n        LogMinimunFeeChanges(msg.sender,minimunFee,_minimunFee);\n        minimunFee = _minimunFee;\n        return true;\n    }\n    /**\n    * @dev make impossible to change percentage again\n    */\n    function stopChangePercentage() public onlyOwner returns(bool){\n        require(canChangePercentage);\n        canChangePercentage = false;\n        StoppingChangingPercentage();\n        return true;\n    }  \n    /**\n    * @dev make impossible to change minimunFee again\n    */\n    function stopChangeMinimunFee() public onlyOwner returns(bool){\n        require(canChangeMinimunFee);\n        canChangeMinimunFee = false;\n        StoppingChangingMinimunFee();\n        return true;\n    }   \n}",
  "sourcePath": "/home/giulio/DAPPS/ERC888/contracts/Taxable.sol",
  "compiler": {
    "name": "solc",
    "version": "0.4.19+commit.c4cbbb05.Emscripten.clang"
  },
  "schemaVersion": "1.0.1",
  "updatedAt": "2018-03-10T18:45:03.489Z"
}